{
    "contractName": "SimplrStorage",
    "abi": [
        {
            "inputs": [
                {
                    "internalType": "string",
                    "name": "_name",
                    "type": "string"
                },
                {
                    "internalType": "uint256",
                    "name": "_unmbers",
                    "type": "uint256"
                }
            ],
            "name": "addPerson",
            "outputs": [],
            "stateMutability": "nonpayable",
            "type": "function"
        },
        {
            "inputs": [
                {
                    "internalType": "string",
                    "name": "",
                    "type": "string"
                }
            ],
            "name": "nameTofavoriterNumber",
            "outputs": [
                {
                    "internalType": "uint256",
                    "name": "",
                    "type": "uint256"
                }
            ],
            "stateMutability": "view",
            "type": "function"
        },
        {
            "inputs": [
                {
                    "internalType": "uint256",
                    "name": "",
                    "type": "uint256"
                }
            ],
            "name": "people",
            "outputs": [
                {
                    "internalType": "uint256",
                    "name": "numbers",
                    "type": "uint256"
                },
                {
                    "internalType": "string",
                    "name": "name",
                    "type": "string"
                }
            ],
            "stateMutability": "view",
            "type": "function"
        },
        {
            "inputs": [],
            "name": "retrives",
            "outputs": [
                {
                    "internalType": "uint256",
                    "name": "",
                    "type": "uint256"
                }
            ],
            "stateMutability": "view",
            "type": "function"
        },
        {
            "inputs": [
                {
                    "internalType": "uint256",
                    "name": "_unmbers",
                    "type": "uint256"
                }
            ],
            "name": "store",
            "outputs": [],
            "stateMutability": "nonpayable",
            "type": "function"
        }
    ],
    "bytecode": "608060405234801561001057600080fd5b5061057d806100206000396000f3fe608060405234801561001057600080fd5b50600436106100575760003560e01c806316b401181461005c5780636057361d146100735780636f760f41146100885780639e7a13ad1461009b578063e8e5e725146100bc575b600080fd5b6000545b6040519081526020015b60405180910390f35b610086610081366004610246565b600055565b005b610086610096366004610302565b6100e7565b6100ae6100a9366004610246565b61018e565b60405161006a92919061036b565b6100606100ca3660046103a5565b805160208183018101805160018252928201919093012091525481565b6040805180820190915281815260208101838152600280546001810182556000829052835191027f405787fa12a823e0f2b7631cc41b3ba8828b3321ca811111fa75cd3aa3bb5ace8101918255915183927f405787fa12a823e0f2b7631cc41b3ba8828b3321ca811111fa75cd3aa3bb5acf0190610165908261046b565b50505081600184604051610179919061052b565b90815260405190819003602001902055505050565b6002818154811061019e57600080fd5b600091825260209091206002909102018054600182018054919350906101c3906103e2565b80601f01602080910402602001604051908101604052809291908181526020018280546101ef906103e2565b801561023c5780601f106102115761010080835404028352916020019161023c565b820191906000526020600020905b81548152906001019060200180831161021f57829003601f168201915b5050505050905082565b60006020828403121561025857600080fd5b5035919050565b634e487b7160e01b600052604160045260246000fd5b600082601f83011261028657600080fd5b813567ffffffffffffffff808211156102a1576102a161025f565b604051601f8301601f19908116603f011681019082821181831017156102c9576102c961025f565b816040528381528660208588010111156102e257600080fd5b836020870160208301376000602085830101528094505050505092915050565b6000806040838503121561031557600080fd5b823567ffffffffffffffff81111561032c57600080fd5b61033885828601610275565b95602094909401359450505050565b60005b8381101561036257818101518382015260200161034a565b50506000910152565b8281526040602082015260008251806040840152610390816060850160208701610347565b601f01601f1916919091016060019392505050565b6000602082840312156103b757600080fd5b813567ffffffffffffffff8111156103ce57600080fd5b6103da84828501610275565b949350505050565b600181811c908216806103f657607f821691505b60208210810361041657634e487b7160e01b600052602260045260246000fd5b50919050565b601f82111561046657600081815260208120601f850160051c810160208610156104435750805b601f850160051c820191505b818110156104625782815560010161044f565b5050505b505050565b815167ffffffffffffffff8111156104855761048561025f565b6104998161049384546103e2565b8461041c565b602080601f8311600181146104ce57600084156104b65750858301515b600019600386901b1c1916600185901b178555610462565b600085815260208120601f198616915b828110156104fd578886015182559484019460019091019084016104de565b508582101561051b5787850151600019600388901b60f8161c191681555b5050505050600190811b01905550565b6000825161053d818460208701610347565b919091019291505056fea26469706673582212203c4f45609cf929984f5027944c2f101f7a14fdcc3734908aeab4a0358d5eba0164736f6c63430008110033",
    "sourcePath": "/Users/hongge/Desktop/testDemo/solidityNote/solidityNote-day/contracts/StorageFactory.sol",
    "compiler": {
        "name": "solc",
        "version": "0.8.17+commit.8df45f5f"
    },
    "functionHashes": {
        "addPerson(string,uint256)": "6f760f41",
        "nameTofavoriterNumber(string)": "e8e5e725",
        "people(uint256)": "9e7a13ad",
        "retrives()": "16b40118",
        "store(uint256)": "6057361d"
    },
    "gasEstimates": {
        "creation": {
            "codeDepositCost": "281000",
            "executionCost": "318",
            "totalCost": "281318"
        },
        "external": {
            "addPerson(string,uint256)": "infinite",
            "nameTofavoriterNumber(string)": "infinite",
            "people(uint256)": "infinite",
            "retrives()": "2248",
            "store(uint256)": "22312"
        }
    }
}